:020000040000FA
:100000000C945E000C9486000C9486000C94860080
:100010000C9486000C9486000C9486000C94860048
:100020000C9486000C9486000C9486000C94860038
:100030000C9486000C9486000C9486000C94860028
:100040000C94C1020C9486000C9431030C940B03A5
:100050000C9486000C9486000C9486000C94860008
:100060000C9486000C9486000000000024002700F9
:100070002A0000000000250028002B0004040404CE
:100080000404040402020202020203030303030342
:10009000010204081020408001020408102001021F
:1000A00004081020000000080002010000030407FB
:1000B00000000000000000006303C00411241FBE04
:1000C000CFEFD8E0DEBFCDBF21E0A0E4B1E001C0BA
:1000D0001D92A13FB207E1F711E0A0E0B1E0ECE131
:1000E000FEE002C005900D92A034B107D9F710E0F0
:1000F000CDE5D0E004C02197FE010E940005CC357B
:10010000D107C9F70E94D7030C9401070C94000093
:10011000E1EBF0E02491EDE9F0E09491E9E8F0E022
:10012000E491EE23C9F0222339F0233001F1A8F441
:10013000213019F1223029F1F0E0EE0FFF1FEE58C7
:10014000FF4FA591B4912FB7F894EC91811126C07F
:1001500090959E239C932FBF08952730A9F02830B7
:10016000C9F0243049F7209180002F7D03C02091F1
:1001700080002F7720938000DFCF24B52F7724BD18
:10018000DBCF24B52F7DFBCF2091B0002F772093BC
:10019000B000D2CF2091B0002F7DF9CF9E2BDACFC7
:1001A0003FB7F8948091460190914701A091480192
:1001B000B091490126B5A89B05C02F3F19F00196C3
:1001C000A11DB11D3FBFBA2FA92F982F8827BC01B1
:1001D000CD01620F711D811D911D42E0660F771FD9
:1001E000881F991F4A95D1F708958F929F92AF92D9
:1001F000BF92CF92DF92EF92FF920E94D0004B010C
:100200005C0184EFC82EDD24D394E12CF12C0E94F4
:10021000D000681979098A099B09683E73408105F5
:100220009105A8F321E0C21AD108E108F10888EE8F
:10023000880E83E0981EA11CB11CC114D104E104F6
:10024000F10429F7FF90EF90DF90CF90BF90AF902F
:100250009F908F900895AF92BF92CF92DF92EF92CE
:10026000FF920F931F93CF93DF936C017B018B0160
:10027000040F151FEB015E01AE18BF08C017D107B0
:1002800059F06991D601ED91FC910190F081E02D3A
:10029000C6010995892B79F7C501DF91CF911F918F
:1002A0000F91FF90EF90DF90CF90BF90AF900895A7
:1002B000FC01538D448D252F30E0842F90E0821B6C
:1002C000930B541710F0CF96089501970895FC01F1
:1002D000918D828D981761F0A28DAE0FBF2FB11D49
:1002E0005D968C91928D9F5F9F73928F90E00895A1
:1002F0008FEF9FEF0895FC01918D828D981731F05B
:10030000828DE80FF11D858D90E008958FEF9FEFAE
:100310000895FC01918D228D892F90E0805C9F4F84
:10032000821B91098F73992708958AE491E00E94B6
:10033000890121E0892B09F420E0822F0895FC0136
:10034000A48DA80FB92FB11DA35ABF4F2C91848D36
:1003500090E001968F739927848FA689B7892C9393
:10036000A089B1898C91837080648C93938D848DE6
:10037000981306C00288F389E02D80818F7D8083E9
:100380000895EF92FF920F931F93CF93DF93EC01A9
:1003900081E0888F9B8D8C8D98131AC0E889F9892C
:1003A000808185FF15C09FB7F894EE89FF8960832F
:1003B000E889F98980818370806480839FBF81E0B0
:1003C00090E0DF91CF911F910F91FF90EF900895F2
:1003D000F62E0B8D10E00F5F1F4F0F731127E02ECD
:1003E0008C8D8E110CC00FB607FCFACFE889F98905
:1003F000808185FFF5CFCE010E949F01F1CFEB8D6B
:10040000EC0FFD2FF11DE35AFF4FF0829FB7F894D8
:100410000B8FEA89FB8980818062CFCFCF93DF93F6
:10042000EC01888D8823B9F0AA89BB89E889F9890C
:100430008C9185FD03C0808186FD0DC00FB607FC41
:10044000F7CF8C9185FFF2CF808185FFEDCFCE0174
:100450000E949F01E9CFDF91CF910895CF93DF9361
:10046000FC0101900020E9F73197AF01481B590BBF
:10047000BC018AE491E00E942B01EC0142E050E0D3
:1004800068E171E08AE491E00E942B018C0F9D1FCE
:10049000DF91CF910895CF93DF93EC018091E70135
:1004A0009091E801009759F02091E9013091EA011B
:1004B0002C173D0720F081E0DF91CF910895BE0118
:1004C0006F5F7F4F0E942B06009789F09093E801A1
:1004D0008093E701D093EA01C093E9012091EB01F9
:1004E0003091EC01232B39F7FC011082E4CF80E03E
:1004F000E3CFFF920F931F93CF93DF9300D0CDB73D
:10050000DEB7FF24F3948AE491E00E948901892BED
:1005100051F18AE491E00E9467018A3019F4F09267
:100520004001F1CF89831A820091EB011091EC0117
:100530000F5F1F4FC8010E944B02882321F32091B7
:10054000E7013091E8018091EB019091EC01BE014F
:100550006F5F7F4F820F931F0E94FA061093EC018A
:100560000093EB01D0CF0F900F90DF91CF911F91AF
:100570000F91FF9008950E94950181110C947902CA
:1005800008951F920F920FB60F9211242F933F934D
:100590008F939F93AF93BF938091420190914301BA
:1005A000A0914401B09145013091410123E0230F16
:1005B0002D3758F50196A11DB11D2093410180935F
:1005C000420190934301A0934401B093450180916F
:1005D000460190914701A0914801B09149010196CF
:1005E000A11DB11D8093460190934701A09348013E
:1005F000B0934901BF91AF919F918F913F912F91FE
:100600000F900FBE0F901F90189526E8230F0296AB
:10061000A11DB11DD2CF1F920F920FB60F921124C0
:100620002F933F934F935F936F937F938F939F93FA
:10063000AF93BF93EF93FF938AE491E00E949F01F1
:10064000FF91EF91BF91AF919F918F917F916F91AA
:100650005F914F913F912F910F900FBE0F901F9080
:1006600018951F920F920FB60F9211242F938F930C
:100670009F93EF93FF93E0915A01F0915B0180818A
:10068000E0916001F091610182FD1BC09081809139
:1006900063018F5F8F7320916401821741F0E091B5
:1006A0006301F0E0E65BFE4F958F80936301FF915D
:1006B000EF919F918F912F910F900FBE0F901F90F0
:1006C00018958081F4CF10924D0110924C0188EE64
:1006D00093E0A0E0B0E080934E0190934F01A0938F
:1006E0005001B09351018AE091E090934B018093C7
:1006F0004A0185EC90E0909357018093560184EC79
:1007000090E0909359018093580180EC90E0909391
:100710005B0180935A0181EC90E090935D0180939E
:100720005C0182EC90E090935F0180935E0186EC27
:1007300090E09093610180936001109263011092A8
:10074000640110926501109266011092E801109206
:10075000E7011092EA011092E9011092EC01109267
:10076000EB0190E080E00E944B022091E701309184
:10077000E801811113C02115310519F0C9010E944A
:10078000A2051092E8011092E7011092EC0110927C
:10079000EB011092EA011092E90108951092EC0128
:1007A0001092EB016AE171E0C9010C94FA067894A9
:1007B00084B5826084BD84B5816084BD85B5826066
:1007C00085BD85B5816085BD80916E008160809317
:1007D0006E00109281008091810082608093810080
:1007E0008091810081608093810080918000816090
:1007F000809380008091B10084608093B1008091EB
:10080000B00081608093B00080917A008460809312
:100810007A0080917A00826080937A0080917A00D9
:10082000816080937A0080917A00806880937A005A
:100830001092C100EDE9F0E02491E9E8F0E0849144
:10084000882399F090E0880F991FFC01E859FF4F29
:10085000A591B491FC01EE58FF4F859194918FB70B
:10086000F894EC91E22BEC938FBFE0915A01F09158
:100870005B0182E08083E0915601F0915701108284
:10088000E0915801F09159018FEC80831092620140
:10089000E0915E01F0915F0186E08083E0915C0170
:1008A000F0915D01808180618083E0915C01F09135
:1008B0005D01808188608083E0915C01F0915D0141
:1008C000808180688083E0915C01F0915D0180818E
:1008D0008F7D80838BE191E00E942E028091400108
:1008E0008823E1F18091EB019091EC01892BC1F01B
:1008F00069E271E08091E7019091E8010E94F106C0
:10090000892B71F481E391E00E942E0281E00E9424
:1009100088000E94F50080E00E9488000E94F50097
:1009200090E080E00E944B022091E7013091E801C5
:1009300081111CC02115310519F0C9010E94A205C1
:100940001092E8011092E7011092EC011092EB0175
:100950001092EA011092E901109240010E94950163
:10096000882309F4BBCF0E947902B8CF1092EC0122
:100970001092EB016AE171E0C9010E94FA06ECCF26
:100980008091E7019091E801009711F00C94A20585
:1009900008952F923F924F925F926F927F928F9223
:1009A0009F92AF92BF92CF92DF92EF92FF920F93FE
:1009B0001F93CF93DF93CDB7DEB7CA1BDB0B0FB608
:1009C000F894DEBF0FBECDBF09942A8839884888C5
:1009D0005F846E847D848C849B84AA84B984C8845B
:1009E000DF80EE80FD800C811B81AA81B981CE0F52
:1009F000D11D0FB6F894DEBF0FBECDBFED01089537
:100A0000EE0FFF1F0590F491E02D09940F931F93B3
:100A1000CF93DF938230910510F482E090E0E09173
:100A2000EF01F091F00130E020E0B0E0A0E030977D
:100A300099F42115310509F44AC0281B390B2430DB
:100A40003105D8F58A819B816115710589F1FB011A
:100A500093838283FE0111C0408151810281138101
:100A600048175907E0F04817590799F4109761F0B3
:100A700012960C93129713961C933296CF01DF9126
:100A8000CF911F910F9108950093EF011093F00102
:100A9000F4CF2115310551F04217530738F0A90161
:100AA000DB019A01BD01DF01F801C1CFEF01F9CFF0
:100AB0009093F0018093EF01CDCFFE01E20FF31F81
:100AC000819391932250310939832883D7CF209184
:100AD000ED013091EE01232B41F420910201309180
:100AE00003013093EE012093ED012091000130913C
:100AF00001012115310541F42DB73EB740910401A4
:100B000050910501241B350BE091ED01F091EE01B0
:100B1000E217F307A0F42E1B3F0B2817390778F0D4
:100B2000AC014E5F5F4F2417350748F04E0F5F1F33
:100B30005093EE014093ED01819391939FCFF0E0AC
:100B4000E0E09CCFCF93DF930097E9F0FC01329770
:100B500013821282A091EF01B091F001ED0130E01B
:100B600020E01097A1F420813181820F931F209102
:100B7000ED013091EE012817390709F061C0F093BB
:100B8000EE01E093ED01DF91CF910895EA01CE17D8
:100B9000DF07E8F54A815B819E0141155105B1F7F8
:100BA000E901FB83EA8349915991C40FD51FEC17E2
:100BB000FD0761F4808191810296840F951FE90100
:100BC00099838883828193819B838A83F0E0E0E02C
:100BD00012968D919C9113970097B9F52D913C91A8
:100BE0001197CD010296820F931F2091ED01309154
:100BF000EE012817390739F6309751F51092F001B8
:100C00001092EF01B093EE01A093ED01BCCFD3831E
:100C1000C28340815181840F951FC817D90761F4A1
:100C20004E5F5F4F88819981480F591F51834083E0
:100C30008A819B81938382832115310509F0B0CF8E
:100C4000F093F001E093EF019ECFFD01DC01C0CFF6
:100C500013821282D7CFB0E0A0E0E1E3F6E00C947B
:100C6000CB048C01009751F4CB010E9406058C0146
:100C7000C801CDB7DEB7E0E10C94E704FC01E60F54
:100C8000F71F9C0122503109E217F30708F49DC0B9
:100C9000D901CD91DC911197C617D70798F0C530CF
:100CA000D10530F3CE0104978617970708F3C61BCA
:100CB000D70B2297C193D1936D937C93CF010E9460
:100CC000A205D6CF5B01AC1ABD0A4C018C0E9D1E4D
:100CD000A091EF01B091F001512C412CF12CE12CAD
:100CE000109731F58091ED019091EE0188159905ED
:100CF00009F05CC04616570608F058C08091000104
:100D000090910101009741F48DB79EB74091040185
:100D100050910501841B950BE817F90708F055C0A1
:100D2000F093EE01E093ED01F90171836083A0CFB0
:100D30008D919C91119712966C90129713967C90BE
:100D40001397A815B90559F56C0142E0C40ED11CE2
:100D5000CA14DB0420F1AC014A195B09DA011296CE
:100D6000159780F06282738251834083D9016D931D
:100D70007C93E114F10471F0D7011396FC93EE9388
:100D8000129776CF22968C0F9D1FF9019183808355
:100D9000F301EFCFF093F001E093EF0169CF481634
:100DA000590608F42C017D01D3019ACFCB010E9492
:100DB00006057C01009749F0AE01B8010E94E806E3
:100DC000C8010E94A205870153CF10E000E050CF78
:100DD000FB01DC0102C001900D9241505040D8F758
:100DE0000895FB01DC018D91019080190110D9F368
:100DF000990B0895FB01DC0101900D920020E1F7B1
:100E0000089510E0CDE5D0E004C0FE010E94000589
:100E10002196CE35D107C9F7F894FFCF0000F10134
:100E2000800000000000C1012B0158010E02890161
:100E300067017B010D0A0041726475696E6F207253
:100E4000656164790041726475696E6F004C454458
:0C0E500020426C696E6B696E6721000027
:107E0000112484B714BE81FFF0D085E080938100F7
:107E100082E08093C00088E18093C10086E0809377
:107E2000C20080E18093C4008EE0C9D0259A86E02C
:107E300020E33CEF91E0309385002093840096BBD3
:107E4000B09BFECF1D9AA8958150A9F7CC24DD24C4
:107E500088248394B5E0AB2EA1E19A2EF3E0BF2EE7
:107E6000A2D0813461F49FD0082FAFD0023811F036
:107E7000013811F484E001C083E08DD089C08234E0
:107E800011F484E103C0853419F485E0A6D080C0E4
:107E9000853579F488D0E82EFF2485D0082F10E0AE
:107EA000102F00270E291F29000F111F8ED06801E7
:107EB0006FC0863521F484E090D080E0DECF843638
:107EC00009F040C070D06FD0082F6DD080E0C81688
:107ED00080E7D80618F4F601B7BEE895C0E0D1E017
:107EE00062D089930C17E1F7F0E0CF16F0E7DF06D8
:107EF00018F0F601B7BEE89568D007B600FCFDCFD4
:107F0000A601A0E0B1E02C9130E011968C91119780
:107F100090E0982F8827822B932B1296FA010C0160
:107F200087BEE89511244E5F5F4FF1E0A038BF0790
:107F300051F7F601A7BEE89507B600FCFDCF97BE46
:107F4000E89526C08437B1F42ED02DD0F82E2BD052
:107F50003CD0F601EF2C8F010F5F1F4F84911BD097
:107F6000EA94F801C1F70894C11CD11CFA94CF0C13
:107F7000D11C0EC0853739F428D08EE10CD085E9AC
:107F80000AD08FE07ACF813511F488E018D01DD067
:107F900080E101D065CF982F8091C00085FFFCCF94
:107FA0009093C60008958091C00087FFFCCF809118
:107FB000C00084FD01C0A8958091C6000895E0E648
:107FC000F0E098E1908380830895EDDF803219F02E
:107FD00088E0F5DFFFCF84E1DECF1F93182FE3DFCA
:107FE0001150E9F7F2DF1F91089580E0E8DFEE27F6
:047FF000FF270994CA
:027FFE00040479
:00000001FF
